{"abi":[{"type":"constructor","inputs":[{"name":"_token","type":"address","internalType":"address"}],"stateMutability":"nonpayable"},{"type":"function","name":"RequestedBalances","inputs":[{"name":"","type":"address","internalType":"address"}],"outputs":[{"name":"","type":"uint256","internalType":"uint256"}],"stateMutability":"view"},{"type":"function","name":"balanceOf","inputs":[{"name":"user","type":"address","internalType":"address"}],"outputs":[{"name":"","type":"uint256","internalType":"uint256"}],"stateMutability":"view"},{"type":"function","name":"balances","inputs":[{"name":"","type":"address","internalType":"address"}],"outputs":[{"name":"","type":"uint256","internalType":"uint256"}],"stateMutability":"view"},{"type":"function","name":"deposit","inputs":[{"name":"amount","type":"uint256","internalType":"uint256"}],"outputs":[],"stateMutability":"nonpayable"},{"type":"function","name":"lockedBalanceOf","inputs":[{"name":"user","type":"address","internalType":"address"}],"outputs":[{"name":"","type":"uint256","internalType":"uint256"}],"stateMutability":"view"},{"type":"function","name":"lockedBalances","inputs":[{"name":"","type":"address","internalType":"address"}],"outputs":[{"name":"","type":"uint256","internalType":"uint256"}],"stateMutability":"view"},{"type":"function","name":"owner","inputs":[],"outputs":[{"name":"","type":"address","internalType":"address"}],"stateMutability":"view"},{"type":"function","name":"renounceOwnership","inputs":[],"outputs":[],"stateMutability":"nonpayable"},{"type":"function","name":"requestUnlock","inputs":[{"name":"amount","type":"uint256","internalType":"uint256"}],"outputs":[],"stateMutability":"nonpayable"},{"type":"function","name":"requestedBalanceOf","inputs":[{"name":"user","type":"address","internalType":"address"}],"outputs":[{"name":"","type":"uint256","internalType":"uint256"}],"stateMutability":"view"},{"type":"function","name":"setTezAddress","inputs":[{"name":"tezAddress","type":"string","internalType":"string"}],"outputs":[],"stateMutability":"nonpayable"},{"type":"function","name":"tezAddressOf","inputs":[{"name":"user","type":"address","internalType":"address"}],"outputs":[{"name":"","type":"string","internalType":"string"}],"stateMutability":"view"},{"type":"function","name":"tezAddresses","inputs":[{"name":"","type":"address","internalType":"address"}],"outputs":[{"name":"","type":"string","internalType":"string"}],"stateMutability":"view"},{"type":"function","name":"token","inputs":[],"outputs":[{"name":"","type":"address","internalType":"contract ERC20"}],"stateMutability":"view"},{"type":"function","name":"transferOwnership","inputs":[{"name":"newOwner","type":"address","internalType":"address"}],"outputs":[],"stateMutability":"nonpayable"},{"type":"function","name":"unlock","inputs":[{"name":"user","type":"address","internalType":"address"}],"outputs":[],"stateMutability":"nonpayable"},{"type":"function","name":"withdraw","inputs":[{"name":"amount","type":"uint256","internalType":"uint256"}],"outputs":[],"stateMutability":"nonpayable"},{"type":"event","name":"Deposit","inputs":[{"name":"user","type":"address","indexed":true,"internalType":"address"},{"name":"amount","type":"uint256","indexed":false,"internalType":"uint256"}],"anonymous":false},{"type":"event","name":"OwnershipTransferred","inputs":[{"name":"previousOwner","type":"address","indexed":true,"internalType":"address"},{"name":"newOwner","type":"address","indexed":true,"internalType":"address"}],"anonymous":false},{"type":"event","name":"RequestUnlock","inputs":[{"name":"user","type":"address","indexed":true,"internalType":"address"},{"name":"tezAddress","type":"string","indexed":false,"internalType":"string"},{"name":"amount","type":"uint256","indexed":false,"internalType":"uint256"}],"anonymous":false},{"type":"event","name":"Unlock","inputs":[{"name":"user","type":"address","indexed":true,"internalType":"address"},{"name":"amount","type":"uint256","indexed":false,"internalType":"uint256"}],"anonymous":false},{"type":"event","name":"Withdraw","inputs":[{"name":"user","type":"address","indexed":true,"internalType":"address"},{"name":"amount","type":"uint256","indexed":false,"internalType":"uint256"}],"anonymous":false},{"type":"error","name":"InsufficientBalance","inputs":[]},{"type":"error","name":"NothintToUnlock","inputs":[]},{"type":"error","name":"OwnableInvalidOwner","inputs":[{"name":"owner","type":"address","internalType":"address"}]},{"type":"error","name":"OwnableUnauthorizedAccount","inputs":[{"name":"account","type":"address","internalType":"address"}]},{"type":"error","name":"TezAddressAlreadyDefined","inputs":[]},{"type":"error","name":"tezAddressNotDefined","inputs":[]}],"bytecode":{"object":"0x608060405234801561001057600080fd5b50604051610eb0380380610eb083398101604081905261002f916100d4565b338061005557604051631e4fbdf760e01b81526000600482015260240160405180910390fd5b61005e81610084565b50600180546001600160a01b0319166001600160a01b0392909216919091179055610104565b600080546001600160a01b038381166001600160a01b0319831681178455604051919092169283917f8be0079c531659141344cd1fd0a4f28419497f9722a3daafe3b4186f6b6457e09190a35050565b6000602082840312156100e657600080fd5b81516001600160a01b03811681146100fd57600080fd5b9392505050565b610d9d806101136000396000f3fe608060405234801561001057600080fd5b506004361061010b5760003560e01c806359355736116100a25780638da5cb5b116100715780638da5cb5b14610274578063b6b55f2514610299578063c9d2ff9d146102ac578063f2fde38b146102bf578063fc0c546a146102d257600080fd5b806359355736146101fa57806362e953281461022357806370a0823114610243578063715018a61461026c57600080fd5b806327e235e3116100de57806327e235e3146101a15780632e1a7d4d146101c15780632f6c493c146101d457806348e3eae4146101e757600080fd5b80630483a7f614610110578063081039bf1461014357806322505be81461016357806326e562c814610178575b600080fd5b61013061011e3660046109a9565b60036020526000908152604090205481565b6040519081526020015b60405180910390f35b6101566101513660046109a9565b6102e5565b60405161013a91906109d9565b610176610171366004610a3e565b61037f565b005b6101306101863660046109a9565b6001600160a01b031660009081526004602052604090205490565b6101306101af3660046109a9565b60026020526000908152604090205481565b6101766101cf366004610aef565b6103d7565b6101766101e23660046109a9565b6104d8565b6101566101f53660046109a9565b610598565b6101306102083660046109a9565b6001600160a01b031660009081526003602052604090205490565b6101306102313660046109a9565b60046020526000908152604090205481565b6101306102513660046109a9565b6001600160a01b031660009081526002602052604090205490565b610176610644565b6000546001600160a01b03165b6040516001600160a01b03909116815260200161013a565b6101766102a7366004610aef565b610658565b6101766102ba366004610aef565b6107f7565b6101766102cd3660046109a9565b6108e9565b600154610281906001600160a01b031681565b600560205260009081526040902080546102fe90610b08565b80601f016020809104026020016040519081016040528092919081815260200182805461032a90610b08565b80156103775780601f1061034c57610100808354040283529160200191610377565b820191906000526020600020905b81548152906001019060200180831161035a57829003601f168201915b505050505081565b336000908152600560205260408120805461039990610b08565b905011156103ba57604051634b63e33b60e11b815260040160405180910390fd5b3360009081526005602052604090206103d38282610b93565b5050565b33600090815260026020526040902054811161040657604051631e9acf1760e31b815260040160405180910390fd5b3360009081526002602052604081208054839290610425908490610c69565b909155505060015460405163a9059cbb60e01b8152336004820152602481018390526001600160a01b039091169063a9059cbb906044016020604051808303816000875af115801561047b573d6000803e3d6000fd5b505050506040513d601f19601f8201168201806040525081019061049f9190610c82565b5060405181815233907f884edad9ce6fa2440d8a54cc123490eb96d2768479d49ff9c7366125a94243649060200160405180910390a250565b6104e061092c565b3360009081526005602052604081208054839291906104fe90610b08565b9050111561051f5760405163056fdc6b60e01b815260040160405180910390fd5b6001600160a01b0382166000908152600460205260409020546105555760405163649476bb60e11b815260040160405180910390fd5b6001600160a01b03821660009081526004602090815260408083208054908490556002909252822080549192839261058e908490610ca4565b9091555050505050565b6001600160a01b03811660009081526005602052604090208054606091906105bf90610b08565b80601f01602080910402602001604051908101604052809291908181526020018280546105eb90610b08565b80156106385780601f1061060d57610100808354040283529160200191610638565b820191906000526020600020905b81548152906001019060200180831161061b57829003601f168201915b50505050509050919050565b61064c61092c565b6106566000610959565b565b336000818152600560205260408120805461067290610b08565b905011156106935760405163056fdc6b60e01b815260040160405180910390fd5b6001546040516370a0823160e01b815233600482015283916001600160a01b0316906370a0823190602401602060405180830381865afa1580156106db573d6000803e3d6000fd5b505050506040513d601f19601f820116820180604052508101906106ff9190610cb7565b1061071d57604051631e9acf1760e31b815260040160405180910390fd5b6001546040516323b872dd60e01b8152336004820152306024820152604481018490526001600160a01b03909116906323b872dd906064016020604051808303816000875af1158015610774573d6000803e3d6000fd5b505050506040513d601f19601f820116820180604052508101906107989190610c82565b5033600090815260036020526040812080548492906107b8908490610ca4565b909155505060405182815233907fe1fffcc4923d04b559f4d29a8bfc6cda04eb5b0d3c460751c2402c5c5cc9109c906020015b60405180910390a25050565b336000818152600560205260408120805461081190610b08565b905011156108325760405163056fdc6b60e01b815260040160405180910390fd5b33600090815260036020526040902054821161086157604051631e9acf1760e31b815260040160405180910390fd5b3360009081526003602052604081208054849290610880908490610c69565b909155505033600090815260046020526040812080548492906108a4908490610ca4565b9091555050336000818152600560205260409081902090517f7eda7a678eb6d9d98de8ec8e3240b82fadc8060281cc21999c52c033addb31bc916107eb918690610cd0565b6108f161092c565b6001600160a01b03811661092057604051631e4fbdf760e01b8152600060048201526024015b60405180910390fd5b61092981610959565b50565b6000546001600160a01b031633146106565760405163118cdaa760e01b8152336004820152602401610917565b600080546001600160a01b038381166001600160a01b0319831681178455604051919092169283917f8be0079c531659141344cd1fd0a4f28419497f9722a3daafe3b4186f6b6457e09190a35050565b6000602082840312156109bb57600080fd5b81356001600160a01b03811681146109d257600080fd5b9392505050565b60006020808352835180602085015260005b81811015610a07578581018301518582016040015282016109eb565b506000604082860101526040601f19601f8301168501019250505092915050565b634e487b7160e01b600052604160045260246000fd5b600060208284031215610a5057600080fd5b813567ffffffffffffffff80821115610a6857600080fd5b818401915084601f830112610a7c57600080fd5b813581811115610a8e57610a8e610a28565b604051601f8201601f19908116603f01168101908382118183101715610ab657610ab6610a28565b81604052828152876020848701011115610acf57600080fd5b826020860160208301376000928101602001929092525095945050505050565b600060208284031215610b0157600080fd5b5035919050565b600181811c90821680610b1c57607f821691505b602082108103610b3c57634e487b7160e01b600052602260045260246000fd5b50919050565b601f821115610b8e576000816000526020600020601f850160051c81016020861015610b6b5750805b601f850160051c820191505b81811015610b8a57828155600101610b77565b5050505b505050565b815167ffffffffffffffff811115610bad57610bad610a28565b610bc181610bbb8454610b08565b84610b42565b602080601f831160018114610bf65760008415610bde5750858301515b600019600386901b1c1916600185901b178555610b8a565b600085815260208120601f198616915b82811015610c2557888601518255948401946001909101908401610c06565b5085821015610c435787850151600019600388901b60f8161c191681555b5050505050600190811b01905550565b634e487b7160e01b600052601160045260246000fd5b81810381811115610c7c57610c7c610c53565b92915050565b600060208284031215610c9457600080fd5b815180151581146109d257600080fd5b80820180821115610c7c57610c7c610c53565b600060208284031215610cc957600080fd5b5051919050565b604081526000808454610ce281610b08565b8060408601526060600180841660008114610d045760018114610d2057610d52565b60ff1985166060890152606084151560051b8901019550610d52565b8960005260208060002060005b86811015610d485781548b8201870152908401908201610d2d565b8a01606001975050505b5050505050602092909201929092529291505056fea2646970667358221220985f21006182dc54e767c616e03769225f1e7a43906a1d868cbca8450154781264736f6c63430008190033","linkReferences":{}},"methodIdentifiers":{"RequestedBalances(address)":"62e95328","balanceOf(address)":"70a08231","balances(address)":"27e235e3","deposit(uint256)":"b6b55f25","lockedBalanceOf(address)":"59355736","lockedBalances(address)":"0483a7f6","owner()":"8da5cb5b","renounceOwnership()":"715018a6","requestUnlock(uint256)":"c9d2ff9d","requestedBalanceOf(address)":"26e562c8","setTezAddress(string)":"22505be8","tezAddressOf(address)":"48e3eae4","tezAddresses(address)":"081039bf","token()":"fc0c546a","transferOwnership(address)":"f2fde38b","unlock(address)":"2f6c493c","withdraw(uint256)":"2e1a7d4d"},"id":22}